{
  "contractName": "Verification",
  "abi": [
    {
      "constant": true,
      "inputs": [
        {
          "name": "hash",
          "type": "bytes32"
        },
        {
          "name": "signature",
          "type": "bytes"
        }
      ],
      "name": "recover",
      "outputs": [
        {
          "name": "",
          "type": "address"
        }
      ],
      "payable": false,
      "stateMutability": "pure",
      "type": "function"
    }
  ],
  "bytecode": "0x608060405234801561001057600080fd5b506101cd806100206000396000f3006080604052600436106100405763ffffffff7c010000000000000000000000000000000000000000000000000000000060003504166319045a258114610045575b600080fd5b34801561005157600080fd5b5060408051602060046024803582810135601f81018590048502860185019096528585526100a39583359536956044949193909101919081908401838280828437509497506100cc9650505050505050565b6040805173ffffffffffffffffffffffffffffffffffffffff9092168252519081900360200190f35b600080600080845160411415156100e65760009350610198565b50505060208201516040830151606084015160001a601b60ff8216101561010b57601b015b8060ff16601b1415801561012357508060ff16601c14155b156101315760009350610198565b60408051600080825260208083018085528a905260ff8516838501526060830187905260808301869052925160019360a0808501949193601f19840193928390039091019190865af115801561018b573d6000803e3d6000fd5b5050506020604051035193505b505050929150505600a165627a7a723058201a881031952144beaaa3e6c79d7a2f21c9c1a9a80ae0bd2a5e7331bb9465874f0029",
  "source": "pragma solidity ^0.4.24;\r\n\r\n/**\r\n * Based upon ECDSA library from OpenZeppelin Solidity\r\n * https://github.com/OpenZeppelin/openzeppelin-solidity/blob/master/contracts/cryptography/ECDSA.sol\r\n */\r\n\r\ncontract Verification {\r\n\r\n  /**\r\n   * @dev Recover signer address from a message by using their signature\r\n   * @param hash bytes32 message, the hash is the signed message. What is recovered is the signer address.\r\n   * @param signature bytes signature, the signature is generated using web3.eth.sign()\r\n   */\r\n  function recover(bytes32 hash, bytes signature)\r\n    public\r\n    pure\r\n    returns (address)\r\n  {\r\n    bytes32 r;\r\n    bytes32 s;\r\n    uint8 v;\r\n\r\n    // Check the signature length\r\n    if (signature.length != 65) {\r\n      return (address(0));\r\n    }\r\n\r\n    // Divide the signature in r, s and v variables\r\n    // ecrecover takes the signature parameters, and the only way to get them\r\n    // currently is to use assembly.\r\n    // solium-disable-next-line security/no-inline-assembly\r\n    assembly {\r\n      r := mload(add(signature, 0x20))\r\n      s := mload(add(signature, 0x40))\r\n      v := byte(0, mload(add(signature, 0x60)))\r\n    }\r\n\r\n    // Version of signature should be 27 or 28, but 0 and 1 are also possible versions\r\n    if (v < 27) {\r\n      v += 27;\r\n    }\r\n\r\n    // If the version is correct return the signer address\r\n    if (v != 27 && v != 28) {\r\n      return (address(0));\r\n    } else {\r\n      // solium-disable-next-line arg-overflow\r\n      return ecrecover(hash, v, r, s);\r\n    }\r\n  }\r\n}\r\n",
  "sourcePath": "D:\\Blockchain\\Insurance\\digitalsign\\contracts\\Verification.sol",
  "compiler": {
    "name": "solc",
    "version": "0.4.24+commit.e67f0147.Emscripten.clang"
  },
  "schemaVersion": "2.0.1",
  "updatedAt": "2018-12-15T19:45:04.925Z"
}